:020000040800F2
:100000000028002045040008E9030008F103000867
:10001000F9030008010400080904000800000000BA
:100020000000000000000000000000003120000877
:100030001104000800000000112200081D0400083F
:100040008D0400088D0400088D0400088D0400084C
:100050008D0400088D0400088D0400088D0400083C
:100060008D0400088D0400088D0400088D0400082C
:100070008D0400088D0400088D0400088D0400081C
:100080008D0400088D0400088D0400088D0400080C
:100090008D0400088D0400088D0400088D040008FC
:1000A0008D0400088D0400088D0400088D040008EC
:1000B0008D0400088D040008000000008D04000875
:1000C0008D04000800000000000000008D040008FE
:1000D000000000008D0400088D04000800000000EE
:1000E0008D0400088D0400088D0400080000000045
:1000F0000000000000000000000000000000000000
:0C01000000000000000000005FF808F1A3
:1001100010B5054C237833B9044B13B10448AFF341
:1001200000800123237010BD60000020000000004B
:100130006828000808B5034B1BB103490348AFF317
:10014000008008BD0000000064000020682800084E
:1001500080B485B000AFF860B9607A60FB68064A89
:100160001A60BB68054A1A607B6880221A6000BF6B
:100170001437BD4680BC70477C0000201C01002065
:10018000B0B596B000AF00F083F900F04BF800F086
:100190008BF81E4B07F138041D460FCD0FC495E8B0
:1001A000070084E8070007F138030021184601F032
:1001B0005FF80346164A1360164B07F11C041D46F0
:1001C0000FCD0FC495E8070084E8070007F11C0372
:1001D0000021184601F04CF803460F4A13600F4BFC
:1001E0003C461D460FCD0FC495E8070084E8070084
:1001F0003B460021184601F03BF80346084A1360CD
:1002000001F02FF800237B6500BFFDE78C28000874
:100210001C030020B428000820030020DC2800086C
:100220002403002080B590B000AF07F11803282206
:100230000021184602F040FA3B1D00221A605A6065
:100240009A60DA601A610223BB610123BB6210234A
:10025000FB6202237B630023BB634FF46013FB63E9
:1002600007F11803184600F007FC0346002B01D0E5
:1002700000F07CF80F237B600223BB600023FB604F
:100280004FF480633B6100237B613B1D02211846D4
:1002900000F074FE0346002B01D000F067F800BFA9
:1002A0004037BD4680BD000080B586B000AF07F185
:1002B000080300221A605A609A60DA60114B9B6949
:1002C000104A43F0040393610E4B9B6903F004034F
:1002D0007B607B6800220E210B4800F09BFB0E2305
:1002E000BB600123FB6000233B6102237B6107F1BC
:1002F00008031946044800F011FA00BF1837BD463C
:1003000080BD00BF001002400008014080B582B0EF
:1003100000AF78600421044800F094FBC82000F08E
:10032000F3FF00BFF6E700BF0008014080B582B0D0
:1003300000AF78600821044800F084FB4FF4FA70A5
:1003400000F0E2FF00BFF5E70008014080B582B091
:1003500000AF78601021044800F074FB4FF42F7058
:1003600000F0D2FF00BFF5E70008014080B400AF05
:1003700072B600BF00BFFDE780B584B000AF184B78
:100380009B69174A43F001039361154B9B6903F086
:100390000103BB60BB68124BDB69114A43F0805319
:1003A000D3610F4BDB6903F080537B607B680022D5
:1003B0000F216FF0010000F088F90A4B5B68FB60C9
:1003C000FB6823F0E063FB60FB6843F08063FB6045
:1003D000044AFB68536000BF1037BD4680BD00BFB4
:1003E000001002400000014080B400AF00BFFDE7F4
:1003F00080B400AF00BFFDE780B400AF00BFFDE7F1
:1004000080B400AF00BFFDE780B400AF00BFFDE7E0
:1004100080B400AF00BFBD4680BC704780B500AF60
:1004200000F07CF801F026FD0346012B01D001F01D
:1004300013FF00BF80BD80B400AF00BFBD4680BCCD
:1004400070470000FFF7F7FF0B480C490C4A0023E8
:1004500002E0D458C4500433C4188C42F9D3094A7A
:10046000094C002301E013600432A242FBD302F0E6
:1004700081F9FFF785FE7047000000206000002032
:100480002C29000860000020C0110020FEE70000B9
:1004900080B500AF084B1B68074A43F01003136098
:1004A000032000F007F90F2000F008F8FFF764FFC1
:1004B0000023184680BD00BF0020024080B582B0F6
:1004C00000AF7860124B1A68124B1B7819464FF434
:1004D0007A73B3FBF1F3B2FBF3F3184600F011F9B2
:1004E0000346002B01D001230EE07B680F2B0AD8B6
:1004F000002279684FF0FF3000F0E7F8064A7B6889
:100500001360002300E0012318460837BD4680BD74
:1005100000000020080000200400002080B400AF8C
:10052000054B1B781A46054B1B681344034A13609E
:1005300000BFBD4680BC7047080000202803002093
:1005400080B400AF024B1B681846BD4680BC7047A4
:100550002803002080B485B000AF78607B6803F08A
:100560000703FB600C4BDB68BB60BA684FF6FF0308
:100570001340BB60FB681A02BB68134343F0BF63C0
:1005800043F40033BB60044ABB68D36000BF143738
:10059000BD4680BC704700BF00ED00E080B400AFF6
:1005A000044BDB681B0A03F007031846BD4680BCFA
:1005B000704700BF00ED00E080B483B000AF034699
:1005C0003960FB7197F90730002B0ADB3B68DAB220
:1005D0000C4997F907301201D2B20B4483F800237B
:1005E0000AE03B68DAB20849FB7903F00F03043BE9
:1005F0001201D2B20B441A7600BF0C37BD4680BC44
:10060000704700BF00E100E000ED00E080B489B079
:1006100000AFF860B9607A60FB6803F00703FB6124
:10062000FB69C3F10703042B28BF0423BB61FB69EB
:100630000433062B02D9FB69033B00E000237B61F6
:100640004FF0FF32BB6902FA03F3DA43BB681A408A
:100650007B699A404FF0FF317B6901FA03F3D9437C
:100660007B680B40134318462437BD4680BC704757
:1006700080B582B000AF78607B68013BB3F1807FCA
:1006800001D301230FE00A4A7B68013B53600F212D
:100690004FF0FF30FFF790FF054B00229A60044BAC
:1006A00007221A60002318460837BD4680BD00BFE8
:1006B00010E000E080B582B000AF78607868FFF7A6
:1006C00049FF00BF0837BD4680BD80B586B000AF8A
:1006D0000346B9607A60FB7300237B61FFF75EFF1E
:1006E00078617A68B9687869FFF790FF024697F9F0
:1006F0000F3011461846FFF75FFF00BF1837BD46A1
:1007000080BD80B582B000AF78607868FFF7B0FF39
:10071000034618460837BD4680BD000080B48BB044
:1007200000AF7860396000237B6200233B6261E1A7
:1007300001227B6A02FA03F3FB613B681B68FA69DA
:100740001340BB61BA69FB699A4240F050813B6833
:100750005B68974A93425ED0954A934275D8954A12
:10076000934258D0934A93426FD8934A934252D0BF
:10077000914A934269D8914A93424CD08F4A93420E
:1007800063D88F4A934246D08D4A93425DD8122B4C
:100790002AD8122B59D801A252F823F017080008C2
:1007A000F107000803080008450800084B08000886
:1007B0004B0800084B0800084B0800084B080008CD
:1007C0004B0800084B0800084B0800084B080008BD
:1007D0004B0800084B0800084B0800084B080008AD
:1007E000F90700080D080008764A934213D02CE060
:1007F0003B68DB683B6229E03B68DB6804333B62B3
:1008000024E03B68DB6808333B621FE03B68DB6841
:100810000C333B621AE03B689B68002B02D1042337
:100820003B6213E03B689B68012B05D108233B62C8
:100830007B68FA691A6109E008233B627B68FA6900
:100840005A6103E000233B6200E000BFBB69FF2B5D
:1008500001D87B6801E07B6804337B61BB69FF2BB7
:1008600002D87B6A9B0002E07B6A083B9B003B61ED
:100870007B691A680F213B6901FA03F3DB431A40D5
:10088000396A3B6901FA03F31A437B691A603B68D2
:100890005B6803F08053002B00F0A9804A4B9B69F2
:1008A000494A43F001039361474B9B6903F00103FD
:1008B000BB60BB68454A7B6A9B08023352F8233011
:1008C000FB607B6A03F003039B000F2202FA03F331
:1008D000DB43FA681340FB607B683D4A93420DD0CE
:1008E0007B683C4A934207D07B683B4A934201D1E4
:1008F000022304E0032302E0012300E000237A6ADC
:1009000002F0030292009340FA681343FB602F4900
:100910007B6A9B080233FA6841F823203B685B68D6
:1009200003F48013002B06D02C4B9A682B49BB692B
:1009300013438B6006E0294B9A68BB69DB43274968
:1009400013408B603B685B6803F40013002B06D0F8
:10095000224BDA682149BB691343CB6006E01F4B89
:10096000DA68BB69DB431D491340CB603B685B68B9
:1009700003F40033002B06D0184B5A681749BB69A3
:1009800013434B6006E0154B5A68BB69DB431349C0
:1009900013404B603B685B6803F48033002B1FD02F
:1009A0000E4B1A680D49BB6913430B601FE000BF73
:1009B0000000321000003110000022100000211051
:1009C0000000121000001110001002400000014051
:1009D00000080140000C01400010014000040140EB
:1009E0000B4B1A68BB69DB43094913400B607B6AF8
:1009F00001337B623B681A687B6A22FA03F3002B9F
:100A00007FF496AE00BF00BF2C37BD4680BC704758
:100A10000004014080B483B000AF78600B467B8057
:100A200013467B707B78002B03D07A887B681A6131
:100A300003E07B881A047B681A6100BF0C37BD464F
:100A400080BC704780B485B000AF78600B467B8077
:100A50007B68DB68FB607A88FB6813401A04FB68DC
:100A6000D9437B880B401A437B681A6100BF143757
:100A7000BD4680BC7047000080B586B000AF78608E
:100A80007B68002B01D1012372E27B681B6803F0B5
:100A90000103002B00F08780924B5B6803F00C038E
:100AA000042B0CD08F4B5B6803F00C03082B12D186
:100AB0008C4B5B6803F48033B3F5803F0BD1894BDB
:100AC0001B6803F40033002B6CD07B685B68002B41
:100AD00068D101234CE27B685B68B3F5803F06D1A7
:100AE000804B1B687F4A43F4803313602EE07B68A1
:100AF0005B68002B0CD17B4B1B687A4A23F4803354
:100B00001360784B1B68774A23F4802313601DE041
:100B10007B685B68B3F5A02F0CD1724B1B68714AE0
:100B200043F4802313606F4B1B686E4A43F4803399
:100B300013600BE06B4B1B686A4A23F4803313602D
:100B4000684B1B68674A23F4802313607B685B68EB
:100B5000002B13D0FFF7F4FC386108E0FFF7F0FC3E
:100B600002463B69D31A642B01D9032300E25D4B93
:100B70001B6803F40033002BF0D014E0FFF7E0FC17
:100B8000386108E0FFF7DCFC02463B69D31A642BAE
:100B900001D90323ECE1534B1B6803F40033002B12
:100BA000F0D100E000BF7B681B6803F00203002B5C
:100BB00063D04C4B5B6803F00C03002B0BD0494B0C
:100BC0005B6803F00C03082B1CD1464B5B6803F4F5
:100BD0008033002B16D1434B1B6803F00203002B1C
:100BE00005D07B681B69012B01D00123C0E13D4B7F
:100BF0001B6823F0F8027B685B69DB00394913430B
:100C00000B603AE07B681B69002B20D0364B012239
:100C10001A60FFF795FC386108E0FFF791FC024687
:100C20003B69D31A022B01D90323A1E12D4B1B6889
:100C300003F00203002BF0D02A4B1B6823F0F802CC
:100C40007B685B69DB00274913430B6015E0264B8B
:100C500000221A60FFF774FC386108E0FFF770FCAF
:100C600002463B69D31A022B01D9032380E11D4BB5
:100C70001B6803F00203002BF0D17B681B6803F0B4
:100C80000803002B3AD07B689B69002B19D0174BC7
:100C900001221A60FFF754FC386108E0FFF750FCAE
:100CA00002463B69D31A022B01D9032360E10D4BA5
:100CB0005B6A03F00203002BF0D0012000F09CFAE5
:100CC0001CE00A4B00221A60FFF73AFC38610FE083
:100CD000FFF736FC02463B69D31A022B08D90323DF
:100CE00046E100BF00100240000042428004424240
:100CF000924B5B6A03F00203002BE9D17B681B680F
:100D000003F00403002B00F0A6800023FB758B4B3F
:100D1000DB6903F08053002B0DD1884BDB69874AD8
:100D200043F08053D361854BDB6903F08053BB6094
:100D3000BB680123FB75824B1B6803F48073002B97
:100D400018D17F4B1B687E4A43F480731360FFF712
:100D5000F7FB386108E0FFF7F3FB02463B69D31A63
:100D6000642B01D9032303E1754B1B6803F48073E3
:100D7000002BF0D07B68DB68012B06D16F4B1B6A20
:100D80006E4A43F0010313622DE07B68DB68002BA1
:100D90000CD16A4B1B6A694A23F001031362674B4B
:100DA0001B6A664A23F0040313621CE07B68DB685D
:100DB000052B0CD1614B1B6A604A43F0040313629C
:100DC0005E4B1B6A5D4A43F0010313620BE05B4B11
:100DD0001B6A5A4A23F001031362584B1B6A574A95
:100DE00023F0040313627B68DB68002B15D0FFF748
:100DF000A7FB38610AE0FFF7A3FB02463B69D31A61
:100E000041F28832934201D90323B1E04B4B1B6A74
:100E100003F00203002BEED014E0FFF791FB3861E2
:100E20000AE0FFF78DFB02463B69D31A41F2883294
:100E3000934201D903239BE0404B1B6A03F002035A
:100E4000002BEED1FB7D012B05D13C4BDB693B4AEE
:100E500023F08053D3617B68DB69002B00F087802F
:100E6000364B5B6803F00C03082B61D07B68DB69B1
:100E7000022B46D1334B00221A60FFF761FB386129
:100E800008E0FFF75DFB02463B69D31A022B01D94C
:100E900003236DE0294B1B6803F00073002BF0D196
:100EA0007B681B6AB3F5803F08D1244B5B6823F451
:100EB00000327B689B68214913434B601F4B5B6882
:100EC00023F474127B68196A7B685B6A0B431B49C5
:100ED00013434B601B4B01221A60FFF731FB386153
:100EE00008E0FFF72DFB02463B69D31A022B01D91C
:100EF00003233DE0114B1B6803F00073002BF0D07F
:100F000035E0104B00221A60FFF71AFB386108E049
:100F1000FFF716FB02463B69D31A022B01D90323C4
:100F200026E0064B1B6803F00073002BF0D11EE097
:100F30007B68DB69012B07D1012319E00010024017
:100F400000700040600042420B4B5B68FB60FB6836
:100F500003F480327B681B6A9A4206D1FB6803F473
:100F600070127B685B6A9A4201D0012300E0002383
:100F700018461837BD4680BD0010024080B584B0C9
:100F800000AF786039607B68002B01D10123D0E08D
:100F90006A4B1B6803F007033A689A4210D9674B03
:100FA0001B6823F0070265493B6813430B60634BE2
:100FB0001B6803F007033A689A4201D00123B8E0A6
:100FC0007B681B6803F00203002B20D07B681B6842
:100FD00003F00403002B05D0594B5B68584A43F4D7
:100FE000E06353607B681B6803F00803002B05D0A7
:100FF000534B5B68524A43F460535360504B5B68F9
:1010000023F0F0027B689B684D4913434B607B687B
:101010001B6803F00103002B40D07B685B68012B49
:1010200007D1474B1B6803F40033002B15D1012374
:101030007FE07B685B68022B07D1414B1B6803F0A4
:101040000073002B09D1012373E03D4B1B6803F0B3
:101050000203002B01D101236BE0394B5B6823F0C5
:1010600003027B685B68364913434B60FFF768FAFD
:10107000F8600AE0FFF764FA0246FB68D31A41F20F
:101080008832934201D9032353E02D4B5B6803F070
:101090000C027B685B689B009A42EBD1274B1B6874
:1010A00003F007033A689A4210D2244B1B6823F0DE
:1010B000070222493B6813430B60204B1B6803F077
:1010C00007033A689A4201D0012332E07B681B682B
:1010D00003F00403002B08D0194B5B6823F4E06293
:1010E0007B68DB68164913434B607B681B6803F021
:1010F0000803002B09D0124B5B6823F460527B6815
:101100001B69DB000E4913434B6000F021F80246D7
:101110000B4B5B681B0903F00F030A49CB5C22FAF7
:1011200003F3094A1360094B1B681846FFF7C6F919
:10113000002318461037BD4680BD00BF0020024086
:1011400000100240002900080000002004000020D8
:1011500080B487B000AF0023FB600023BB60002396
:101160007B6100237B6000233B611E4B5B68FB605F
:10117000FB6803F00C03042B02D0082B03D027E0FC
:10118000194B3B6127E0FB689B0C03F00F03174AE8
:10119000D35C7B60FB6803F48033002B10D0114BD1
:1011A0005B685B0C03F00103114AD35CBB607B6896
:1011B0000D4A03FB02F2BB68B2FBF3F37B6104E070
:1011C0007B680C4A02FB03F37B617B693B6102E0B5
:1011D000054B3B6100BF3B6918461C37BD4680BCD0
:1011E000704700BF0010024000127A00102900086A
:1011F0002029000800093D0080B485B000AF786068
:101200000A4B1B680A4AA2FB03235B0A7A6802FBAB
:1012100003F3FB6000BFFB685A1EFA60002BF9D194
:1012200000BF00BF1437BD4680BC704700000020DF
:10123000D34D621080B485B000AF0346FB8000231D
:10124000FB60B7F90630842B05D0B7F90620FB68A0
:1012500013440333FB60FB6818461437BD4680BC5B
:10126000704780B500AF00F0F7FA0023184680BD44
:10127000F0B589B004AF786039607B685B69002B9A
:1012800020D07B689B69002B1CD07B685C687B68E6
:101290001D687B681E697B68B3F908301846FFF744
:1012A000C9FF01467B685B697A6892690292019383
:1012B00000913B6832462946204600F0E8F8034694
:1012C000FB601CE07B685C687B681D687B681B6951
:1012D0009EB27B68B3F908301846FFF7ABFF0246B1
:1012E00007F10C03019300923B68324629462046E1
:1012F00000F02DF90346012B01D0002300E0FB682C
:1013000018461437BD46F0BD80B584B000AF786094
:101310007B68FB60FB68002B01D0FB6800E00123C9
:10132000184600F063FA002318461037BD4680BD0A
:1013300080B483B000AF78607B6803F108027B68FB
:101340005A607B684FF0FF329A607B6803F10802B5
:101350007B68DA607B6803F108027B681A617B684E
:1013600000221A6000BF0C37BD4680BC704780B4B5
:1013700083B000AF78607B6800221A6100BF0C3731
:10138000BD4680BC704780B485B000AF78603960DE
:101390007B685B68FB603B68FA685A60FB689A6828
:1013A0003B689A60FB689B683A685A60FB683A68D9
:1013B0009A603B687A681A617B681B685A1C7B6874
:1013C0001A6000BF1437BD4680BC704780B485B03A
:1013D00000AF786039603B681B68BB60BB68B3F1E5
:1013E000FF3F03D17B681B69FB600CE07B6808331F
:1013F000FB6002E0FB685B68FB60FB685B681B6886
:10140000BA689A42F6D2FB685A683B685A603B68F1
:101410005B683A689A603B68FA689A60FB683A6869
:101420005A603B687A681A617B681B685A1C7B6843
:101430001A6000BF1437BD4680BC704780B485B0C9
:1014400000AF78607B681B69FB607B685B687A68CB
:1014500092689A607B689B687A6852685A60FB68F9
:101460005B687A689A4203D17B689A68FB685A6025
:101470007B6800221A61FB681B685A1EFB681A60B1
:10148000FB681B6818461437BD4680BC704780B5A2
:101490008EB004AFF860B9607A603B607B6B002B64
:1014A0000BD14FF0500383F31188BFF36F8FBFF35D
:1014B0004F8F3B6200BF00BFFDE7BB6B002B0BD122
:1014C0004FF0500383F31188BFF36F8FBFF34F8F3B
:1014D000FB6100BF00BFFDE7A0233B613B69A02B80
:1014E0000BD04FF0500383F31188BFF36F8FBFF31E
:1014F0004F8FBB6100BF00BFFDE73B69BB6B002B9B
:101500001ED07B6B002B1BD0BB6B7B627B6A7A6B24
:101510001A637B6A022283F89D20002303937B6A6F
:10152000029307F1140301933B6B00933B687A68C5
:10153000B968F86800F050F8786A00F0EDF801E05A
:1015400000237B617B6918462837BD4680BD80B586
:101550008CB004AFF860B9603B601346FB80FB8839
:101560009B00184600F0BCFE78617B69002B0ED012
:10157000A02000F0B5FEF861FB69002B03D0FB69E9
:101580007A691A6305E0786900F078FF01E00023CA
:10159000FB61FB69002B17D0FB69002283F89D20BB
:1015A000FA8800230393FB690293FB6A0193BB6AE9
:1015B00000933B68B968F86800F00EF8F86900F02D
:1015C000ABF80123BB6102E04FF0FF33BB61BB69A5
:1015D00018462037BD4680BD80B588B000AFF860A2
:1015E000B9607A603B603B6B1A6B7B6803F18043A8
:1015F000013B9B001344BB61BB6923F00703BB6144
:10160000BB6903F00703002B0BD04FF0500383F3AB
:101610001188BFF36F8FBFF34F8F7B6100BF00BF97
:10162000FDE7BB68002B1FD00023FB6112E0BA6806
:10163000FB69134419783A6BFB69134434330A4647
:101640001A70BA68FB6913441B78002B06D0FB693B
:101650000133FB61FB690F2BE9D900E000BF3B6B55
:10166000002283F8432003E03B6B002283F8342000
:10167000BB6A062B01D90623BB623B6BBA6ADA62EE
:101680003B6BBA6A5A643B6B00229A643B6B04332F
:101690001846FFF76CFE3B6B18331846FFF767FEE2
:1016A0003B6B3A6B1A61BB6AC3F107023B6B9A61F1
:1016B0003B6B3A6B5A623B6B0022C3F898203B6B42
:1016C000002283F89C203B6B4C334C2200211846AF
:1016D00000F0F2FF3B6B0D4A1A653B6B0C4A5A65F2
:1016E0003B6B0C4A9A653A68F968B86900F046FCA9
:1016F00002463B6B1A60FB6A002B02D0FB6A3A6B16
:101700001A6000BF2037BD4680BD00BF801000209A
:10171000E81000205011002080B582B000AF786042
:1017200000F01CFD2A4B1B680133294A1360294B2A
:101730001B68002B09D1274A7B681360244B1B6868
:10174000012B10D100F0D2FA0DE0234B1B68002BC7
:1017500009D1204B1B68DA6A7B68DB6A9A4202D89F
:101760001C4A7B6813601D4B1B6801331B4A1360C6
:101770007B68DB6A01229A40194B1B681343184AA5
:1017800013607B68DA6A13469B0013449B00154A7A
:101790001A447B68043319461046FFF7F4FD00F045
:1017A0000DFD0D4B1B68002B0ED00A4B1B68DA6A2F
:1017B0007B68DB6A9A4207D20B4B4FF080521A606B
:1017C000BFF34F8FBFF36F8F00BF0837BD4680BD9B
:1017D0002C0400202C0300203804002048040020A2
:1017E000340400203003002004ED00E080B584B014
:1017F00000AF78600023FB607B68002B18D0144B8F
:101800001B68002B0BD04FF0500383F31188BFF3FC
:101810006F8FBFF34F8FBB6000BF00BFFDE700F0CD
:1018200085F80021786800F043FB00F08DF8F8603F
:10183000FB68002B07D1074B4FF080521A60BFF3B3
:101840004F8FBFF36F8F00BF1037BD4680BD00BF05
:101850005404002004ED00E080B58AB004AF0023FA
:10186000BB6000237B603A46391D07F10803184628
:10187000FEF76EFC39687B68BA6802920193002318
:10188000009300230A4621492148FFF700FE034642
:10189000204A13601F4B1B68002B02D001237B6181
:1018A00001E000237B617B69012B1BD14FF05003CA
:1018B00083F31188BFF36F8FBFF34F8F3B6100BF7E
:1018C000154B1B684C33154A1360154B4FF0FF3214
:1018D0001A60144B01221A60134B00221A6000F0A8
:1018E000CBFB0FE07B69B3F1FF3F0BD14FF050030F
:1018F00083F31188BFF36F8FBFF34F8FFB6000BF7F
:1019000000BFFDE700BF1837BD4680BDF8280008BE
:10191000BD1C0008500400202C03002010000020F3
:101920004C040020380400203004002080B400AFB4
:10193000044B1B680133034A136000BFBD4680BCE3
:10194000704700BF5404002080B584B000AF00236E
:10195000FB600023BB60424B1B68002B0BD14FF098
:10196000500383F31188BFF36F8FBFF34F8F3B603A
:1019700000BF00BFFDE700F0F1FB394B1B68013BE6
:10198000374A1360364B1B68002B61D1354B1B68FF
:10199000002B5DD02EE0344BDB68DB68FB60FB681E
:1019A00018331846FFF74AFDFB6804331846FFF763
:1019B00045FDFB68DB6A01229A402C4B1B681343F0
:1019C0002A4A1360FB68DA6A13469B0013449B00A3
:1019D000274A1A44FB68043319461046FFF7D3FC24
:1019E000FB68DA6A234B1B68DB6A9A4202D3224BFC
:1019F00001221A601C4B1B68002BCCD1FB68002B0A
:101A000001D000F017FA1D4B1B687B607B68002B30
:101A100010D000F037F80346002B02D0164B0122FD
:101A20001A607B68013B7B607B68002BF1D1134B14
:101A300000221A60104B1B68002B09D00123BB60E9
:101A40000F4B4FF080521A60BFF34F8FBFF36F8F71
:101A500000F0B4FBBB6818461037BD4680BD00BF20
:101A6000540400202C040020EC0300203404002047
:101A7000300300202C030020400400203C04002000
:101A800004ED00E080B586B000AF00237B614F4BD2
:101A90001B68002B40F08F804D4B1B6801333B616E
:101AA0004B4A3B6913603B69002B21D1494B1B68B2
:101AB0001B68002B0BD04FF0500383F31188BFF34A
:101AC0006F8FBFF34F8F3B6000BF00BFFDE7414BFF
:101AD0001B68FB60404B1B683E4A13603E4AFB6834
:101AE00013603E4B1B6801333C4A136000F0A2F9BF
:101AF0003B4B1B683A699A4248D3364B1B681B68BC
:101B0000002B04D1364B4FF0FF321A603EE0314BD0
:101B10001B68DB68DB68BB60BB685B687B603A693D
:101B20007B689A4203D22E4A7B6813602EE0BB6822
:101B300004331846FFF782FCBB689B6A002B04D075
:101B4000BB6818331846FFF779FCBB68DB6A0122D3
:101B50009A40244B1B681343224A1360BB68DA6A1D
:101B600013469B0013449B001F4A1A44BB6804336E
:101B700019461046FFF707FCBB68DA6A1B4B1B6867
:101B8000DB6A9A42B9D301237B61B6E7174B1B6826
:101B9000DA6A154913469B0013449B000B441B68EB
:101BA000012B01D901237B61114B1B68002B07D04E
:101BB00001237B6104E00F4B1B6801330D4A136066
:101BC0007B6918461837BD4680BD00BF540400200D
:101BD00030040020E4030020E80300204404002037
:101BE0004C04002034040020300300202C0300208B
:101BF000400400203C04002080B487B000AF294B93
:101C00001B68002B03D0284B01221A6045E0264BAD
:101C100000221A60254B1B68FB60FB68B3FA83F354
:101C2000FB72FB7AC3F11F037B6121497A6913467A
:101C30009B0013449B000B441B68002B0BD14FF0FF
:101C4000500383F31188BFF36F8FBFF34F8F7B6017
:101C500000BF00BFFDE77A6913469B0013449B0059
:101C6000134A13443B613B695B685A683B695A609D
:101C70003B695A683B6908339A4204D13B695B6807
:101C80005A683B695A603B695B68DB68094A1360C4
:101C9000084B1B684C33084A136000BF1C37BD4615
:101CA00080BC70475404002040040020340400200D
:101CB000300300202C0300201000002080B582B0EB
:101CC00000AF786000F052F8064B1B68012BF9D981
:101CD000054B4FF080521A60BFF34F8FBFF36F8FE9
:101CE000F0E700BF3003002004ED00E080B582B0D3
:101CF00000AF00237B600CE07A6813469B0013441E
:101D00009B00124A13441846FFF712FB7B6801330D
:101D10007B607B68062BEFD90D48FFF709FB0D4868
:101D2000FFF706FB0C48FFF703FB0C48FFF700FB2F
:101D30000B48FFF7FDFA0B4B054A1A600A4B054AA0
:101D40001A6000BF0837BD4680BD00BF30030020C9
:101D5000BC030020D0030020EC030020000400207E
:101D600018040020E4030020E803002080B582B0BE
:101D700000AF19E000F0F2F9104BDB68DB687B6024
:101D80007B6804331846FFF759FB0D4B1B68013B7A
:101D90000B4A13600B4B1B68013B0A4A136000F0AF
:101DA0000DFA786800F010F8064B1B68002BE1D1A3
:101DB00000BF00BF0837BD4680BD00BF0004002043
:101DC0002C0400201404002080B584B000AF78609B
:101DD0007B684C33184600F077FC7B6893F89D30A5
:101DE000002B08D17B681B6B184600F047FB786816
:101DF00000F044FB19E07B6893F89D30012B03D180
:101E0000786800F03BFB10E07B6893F89D30022B74
:101E10000BD04FF0500383F31188BFF36F8FBFF3E4
:101E20004F8FFB6000BF00BFFDE700BF1037BD460E
:101E300080BD000080B483B000AF0C4B1B681B68F2
:101E4000002B04D10A4B4FF0FF321A6008E0074B19
:101E50001B68DB68DB687B607B685B68044A136037
:101E600000BF0C37BD4680BC704700BFE4030020B4
:101E70004C04002080B483B000AF0B4B1B68002BD8
:101E800002D101237B6008E0084B1B68002B02D1C4
:101E900002237B6001E000237B607B6818460C37DF
:101EA000BD4680BC704700BF3804002054040020A9
:101EB00080B584B000AF78603960294B1B68FB6047
:101EC000284B1B6804331846FFF7B8FA0346002B6B
:101ED0000BD1244B1B68DB6A012202FA03F3DA43BD
:101EE000214B1B681340204A13607B68B3F1FF3F0E
:101EF0000AD13B68002B07D01A4B1B6804331946E4
:101F00001A48FFF740FA26E0FA687B681344BB6082
:101F1000144B1B68BA685A60BA68FB689A4209D2C7
:101F2000134B1A680F4B1B68043319461046FFF712
:101F30004DFA10E00F4B1A680A4B1B680433194620
:101F40001046FFF743FA0C4B1B68BA689A4202D25C
:101F5000094ABB68136000BF1037BD4680BD00BF93
:101F6000300400202C03002034040020180400203A
:101F7000E8030020E40300204C04002080B485B076
:101F800000AFF860B9607A60FB68043BFB60FB68F7
:101F90004FF080721A60FB68043BFB60BB6823F063
:101FA0000102FB681A60FB68043BFB60084AFB689F
:101FB0001A60FB68143BFB607A68FB681A60FB6878
:101FC000203BFB60FB6818461437BD4680BC704759
:101FD000D51F000880B485B000AF00237B60124B92
:101FE0001B68B3F1FF3F0BD04FF0500383F3118810
:101FF000BFF36F8FBFF34F8FFB6000BF00BFFDE7E4
:102000004FF0500383F31188BFF36F8FBFF34F8FEF
:10201000BB6000BF00BF7B68002BFCD000BF00BFCF
:102020001437BD4680BC70470C0000200000000043
:10203000074B19680868B0E8F00F80F30988BFF310
:102040006F8F4FF0000080F311884EF00D0E704737
:102050002C03002000BF00BF06480068006880F322
:10206000088862B661B6BFF34F8FBFF36F8F00DF92
:1020700000BF00BF08ED00E080B584B000AF324B78
:10208000FB60FB681B78DBB27B60FB68FF221A7089
:10209000FB681B78DBB2FB70FB78DBB203F050030C
:1020A000DAB22A4B1A702A4B07221A6009E0284B31
:1020B0001B68013B264A1360FB78DBB25B00DBB296
:1020C000FB70FB78DBB203F08003802BEFD0204B5A
:1020D0001B68C3F10703042B0BD04FF0500383F3AD
:1020E0001188BFF36F8FBFF34F8FBB6000BF00BF7E
:1020F000FDE7174B1B681B02154A1360144B1B6846
:1021000003F4E063124A13607B68DAB2FB681A706A
:10211000104B1B680F4A43F4700313600D4B1B6890
:102120000C4A43F07043136000F0B8F80A4B0022E9
:102130001A60FFF791FFFFF75FFDFFF74BFF0023EA
:1021400018461037BD4680BD00E400E0580400206A
:102150005C04002020ED00E00C00002080B483B07F
:1021600000AF4FF0500383F31188BFF36F8FBFF3BD
:102170004F8F7B6000BF0F4B1B6801330D4A13600C
:102180000C4B1B68012B10D10B4B1B68DBB2002BD7
:102190000BD04FF0500383F31188BFF36F8FBFF361
:1021A0004F8F3B6000BF00BFFDE700BF0C37BD464F
:1021B00080BC70470C00002004ED00E080B483B0C8
:1021C00000AF124B1B68002B0BD14FF0500383F371
:1021D0001188BFF36F8FBFF34F8F7B6000BF00BFCD
:1021E000FDE70A4B1B68013B084A1360074B1B685D
:1021F000002B05D100233B603B6883F3118800BFAF
:1022000000BF0C37BD4680BC704700BF0C000020EB
:10221000EFF30980BFF36F8F0D4B1A6820E9F00FC1
:1022200010602DE908404FF0500080F31188FFF74F
:10223000E3FC4FF0000080F31188BDE80840196806
:102240000868B0E8F00F80F30988BFF36F8F70471C
:102250002C03002000BF00BF80B582B000AF4FF05C
:10226000500383F31188BFF36F8FBFF34F8F7B60F1
:1022700000BFFFF707FC0346002B03D0064B4FF0CF
:1022800080521A6000233B603B6883F3118800BFD3
:1022900000BF0837BD4680BD04ED00E080B400AF4C
:1022A0000A4B00221A600A4B00221A60094B1B6875
:1022B000094AA2FB03239B09084A013B1360034B15
:1022C00007221A6000BFBD4680BC704710E000E0E6
:1022D00018E000E000000020D34D621014E000E0A0
:1022E00080B58AB000AF78600023FB61FFF71EFB6A
:1022F0005C4B1B68002B01D100F024F95A4B1A6883
:102300007B681340002B40F095807B68002B1ED02B
:1023100008227B6813447B607B6803F00703002B73
:1023200015D07B6823F0070308337B607B6803F0DC
:102330000703002B0BD04FF0500383F31188BFF33A
:102340006F8FBFF34F8F7B6100BF00BFFDE77B68DE
:10235000002B6FD0454B1B687A689A426AD8444B71
:102360003B62434B1B687B6204E07B6A3B627B6A97
:102370001B687B627B6A5B687A689A4203D97B6AD6
:102380001B68002BF1D1374B1B687A6A9A4251D0F7
:102390003B6A1B6808221344FB617B6A1A683B6A2C
:1023A0001A607B6A5A687B68D21A08235B009A42DB
:1023B00020D97A6A7B681344BB61BB6903F00703C9
:1023C000002B0BD04FF0500383F31188BFF36F8FB6
:1023D000BFF34F8F3B6100BF00BFFDE77B6A5A68C8
:1023E0007B68D21ABB695A607B6A7A685A60B8699E
:1023F00000F00AF91D4B1A687B6A5B68D31A1B4A06
:1024000013601A4B1A681B4B1B689A4203D2174B76
:102410001B68184A13607B6A5A68134B1B681A437F
:102420007B6A5A607B6A00221A60134B1B68013377
:10243000114A1360FFF788FAFB6903F00703002BCA
:102440000BD04FF0500383F31188BFF36F8FBFF3AE
:102450004F8FFB6000BF00BFFDE7FB6918462837C0
:10246000BD4680BD681000207C1000206C1000204C
:1024700060100020701000207410002080B586B01D
:1024800000AF78607B687B617B68002B4FD00823AE
:102490005B427A6913447B617B693B613B695A68A3
:1024A000254B1B681340002B0BD14FF0500383F3D7
:1024B0001188BFF36F8FBFF34F8FFB6000BF00BF6A
:1024C000FDE73B691B68002B0BD04FF0500383F3F3
:1024D0001188BFF36F8FBFF34F8FBB6000BF00BF8A
:1024E000FDE73B695A68144B1B681340002B1ED054
:1024F0003B691B68002B1AD13B695A680E4B1B685D
:10250000DB431A403B695A60FFF710FA3B695A688F
:102510000A4B1B681344094A1360386900F074F8C9
:10252000074B1B680133064A1360FFF70DFA00BF23
:102530001837BD4680BD00BF7C1000206C10002005
:102540007810002080B485B000AF4FF44063BB60CA
:10255000274BFB60FB6803F00703002B0CD0FB68E4
:102560000733FB60FB6823F00703FB60BA68FB6876
:10257000D31A1F4A1344BB60FB687B601D4A7B680B
:1025800013601C4B00225A607B68BA681344FB60DE
:102590000822FB689B1AFB60FB6823F00703FB60C3
:1025A000FB68154A1360144B1B6800225A60124BDB
:1025B0001B6800221A607B683B603B68FA68D21A8D
:1025C0003B685A600C4B1A683B681A603B685B6852
:1025D0000A4A13603B685B68094A1360094B4FF075
:1025E00000421A6000BF1437BD4680BC704700BF70
:1025F000600400206010002068100020701000208F
:102600006C1000207C10002080B485B000AF786092
:10261000274BFB6002E0FB681B68FB60FB681B68E4
:102620007A689A42F7D8FB68BB60FB685B68BA6857
:1026300013447A689A4208D1FB685A687B685B68E1
:102640001A44FB685A60FB687B607B68BB607B68F0
:102650005B68BA681A44FB681B689A4218D1FB6829
:102660001A68144B1B689A420DD07B685A68FB6845
:102670001B685B681A447B685A60FB681B681A68B1
:102680007B681A6008E00B4B1A687B681A6003E0ED
:10269000FB681A687B681A60FA687B689A4202D005
:1026A000FB687A681A6000BF1437BD4680BC70476B
:1026B000601000206810002003460244934200D1BD
:1026C000704703F8011BF9E7294B70B51B680446F6
:1026D00083424BD0C369ABB1DB686BB10025E369C2
:1026E000DB68595900293BD10435802DF7D1E369C6
:1026F0002046D96800F064F8E369196811B12046F2
:1027000000F05EF8616911B1204600F059F8E16906
:1027100011B1204600F054F8216B11B1204600F0B1
:102720004FF8616B11B1204600F04AF8A16B11B16E
:10273000204600F045F8A16C11B1204600F040F8A9
:10274000616C11B1204600F03BF8E16A11B12046FE
:1027500000F036F8236A4BB12046BDE870401847B8
:102760000E68204600F02CF83146BBE770BD00BF74
:102770001000002070B500260C4D0D4C641BA410F9
:10278000A64209D100F070F800260A4D0A4C641BDD
:10279000A410A64205D170BD55F8043B98470136F8
:1027A000EEE755F8043B98470136F2E72429000884
:1027B00024290008242900082829000870477047A8
:1027C00038B50546002940D051F8043C0C1F002BB9
:1027D000B8BFE41800F03CF81C4A136833B96360D2
:1027E00014602846BDE8384000F038B8A34208D944
:1027F000206821188B4201BF19685B6809182160A5
:10280000EDE71A465B680BB1A342FAD9116850187C
:10281000A0420BD120680144501883421160E0D1DE
:1028200018685B68084410605360DAE702D90C232B
:102830002B60D6E7206821188B4201BF19685B68BE
:102840000918216063605460CBE738BDBC110020DB
:102850000148FFF7B3BF00BFB81100200148FFF7E0
:10286000AEBF00BFB8110020F8B500BFF8BC08BC6F
:102870009E467047F8B500BFF8BC08BC9E4670473E
:102880005265644C69676874000000008028000885
:102890000D030008000000000000000080000000A0
:1028A0000000000000000000477265656E4C69671B
:1028B00068740000A82800082D030008000000002C
:1028C0000000000080000000000000000000000088
:1028D000426C75654C69676874000000D028000878
:1028E0004D030008FDFF0000000000008000000014
:1028F000000000000000000049444C4500000000BA
:10290000000000000000000001020304060708099F
:1029100002030405060708090A0B0C0D0E0F101020
:0429200001020000B0
:042924003501000871
:042928001101000891
:10292C0000127A001000000001000000AAAAAAAA56
:10293C00140000200000000080100020E81000208F
:10294C0050110020000000000000000000000000FA
:10295C00000000000000000000000000000000006B
:10296C00000000000000000000000000000000005B
:10297C00000000000000000000000000000000004B
:0400000508000445A6
:00000001FF
